{
  "contractName": "PayToken",
  "abi": [
    {
      "inputs": [
        {
          "internalType": "string",
          "name": "_name",
          "type": "string"
        },
        {
          "internalType": "string",
          "name": "_symbol",
          "type": "string"
        },
        {
          "internalType": "uint256",
          "name": "initialSupply",
          "type": "uint256"
        },
        {
          "internalType": "uint256",
          "name": "_cap",
          "type": "uint256"
        }
      ],
      "stateMutability": "nonpayable",
      "type": "constructor"
    },
    {
      "anonymous": false,
      "inputs": [
        {
          "indexed": true,
          "internalType": "address",
          "name": "owner",
          "type": "address"
        },
        {
          "indexed": true,
          "internalType": "address",
          "name": "spender",
          "type": "address"
        },
        {
          "indexed": false,
          "internalType": "uint256",
          "name": "value",
          "type": "uint256"
        }
      ],
      "name": "Approval",
      "type": "event"
    },
    {
      "anonymous": false,
      "inputs": [
        {
          "indexed": true,
          "internalType": "address",
          "name": "previousOwner",
          "type": "address"
        },
        {
          "indexed": true,
          "internalType": "address",
          "name": "newOwner",
          "type": "address"
        }
      ],
      "name": "OwnershipTransferred",
      "type": "event"
    },
    {
      "anonymous": false,
      "inputs": [
        {
          "indexed": false,
          "internalType": "address",
          "name": "account",
          "type": "address"
        }
      ],
      "name": "Paused",
      "type": "event"
    },
    {
      "anonymous": false,
      "inputs": [
        {
          "indexed": true,
          "internalType": "address",
          "name": "from",
          "type": "address"
        },
        {
          "indexed": true,
          "internalType": "address",
          "name": "to",
          "type": "address"
        },
        {
          "indexed": false,
          "internalType": "uint256",
          "name": "value",
          "type": "uint256"
        }
      ],
      "name": "Transfer",
      "type": "event"
    },
    {
      "anonymous": false,
      "inputs": [
        {
          "indexed": false,
          "internalType": "address",
          "name": "account",
          "type": "address"
        }
      ],
      "name": "Unpaused",
      "type": "event"
    },
    {
      "inputs": [
        {
          "internalType": "address",
          "name": "owner",
          "type": "address"
        },
        {
          "internalType": "address",
          "name": "spender",
          "type": "address"
        }
      ],
      "name": "allowance",
      "outputs": [
        {
          "internalType": "uint256",
          "name": "",
          "type": "uint256"
        }
      ],
      "stateMutability": "view",
      "type": "function",
      "constant": true
    },
    {
      "inputs": [
        {
          "internalType": "address",
          "name": "spender",
          "type": "address"
        },
        {
          "internalType": "uint256",
          "name": "amount",
          "type": "uint256"
        }
      ],
      "name": "approve",
      "outputs": [
        {
          "internalType": "bool",
          "name": "",
          "type": "bool"
        }
      ],
      "stateMutability": "nonpayable",
      "type": "function"
    },
    {
      "inputs": [
        {
          "internalType": "address",
          "name": "account",
          "type": "address"
        }
      ],
      "name": "balanceOf",
      "outputs": [
        {
          "internalType": "uint256",
          "name": "",
          "type": "uint256"
        }
      ],
      "stateMutability": "view",
      "type": "function",
      "constant": true
    },
    {
      "inputs": [
        {
          "internalType": "uint256",
          "name": "amount",
          "type": "uint256"
        }
      ],
      "name": "burn",
      "outputs": [],
      "stateMutability": "nonpayable",
      "type": "function"
    },
    {
      "inputs": [
        {
          "internalType": "address",
          "name": "account",
          "type": "address"
        },
        {
          "internalType": "uint256",
          "name": "amount",
          "type": "uint256"
        }
      ],
      "name": "burnFrom",
      "outputs": [],
      "stateMutability": "nonpayable",
      "type": "function"
    },
    {
      "inputs": [],
      "name": "cap",
      "outputs": [
        {
          "internalType": "uint256",
          "name": "",
          "type": "uint256"
        }
      ],
      "stateMutability": "view",
      "type": "function",
      "constant": true
    },
    {
      "inputs": [],
      "name": "decimals",
      "outputs": [
        {
          "internalType": "uint8",
          "name": "",
          "type": "uint8"
        }
      ],
      "stateMutability": "view",
      "type": "function",
      "constant": true
    },
    {
      "inputs": [
        {
          "internalType": "address",
          "name": "spender",
          "type": "address"
        },
        {
          "internalType": "uint256",
          "name": "subtractedValue",
          "type": "uint256"
        }
      ],
      "name": "decreaseAllowance",
      "outputs": [
        {
          "internalType": "bool",
          "name": "",
          "type": "bool"
        }
      ],
      "stateMutability": "nonpayable",
      "type": "function"
    },
    {
      "inputs": [
        {
          "internalType": "address",
          "name": "spender",
          "type": "address"
        },
        {
          "internalType": "uint256",
          "name": "addedValue",
          "type": "uint256"
        }
      ],
      "name": "increaseAllowance",
      "outputs": [
        {
          "internalType": "bool",
          "name": "",
          "type": "bool"
        }
      ],
      "stateMutability": "nonpayable",
      "type": "function"
    },
    {
      "inputs": [],
      "name": "name",
      "outputs": [
        {
          "internalType": "string",
          "name": "",
          "type": "string"
        }
      ],
      "stateMutability": "view",
      "type": "function",
      "constant": true
    },
    {
      "inputs": [],
      "name": "owner",
      "outputs": [
        {
          "internalType": "address",
          "name": "",
          "type": "address"
        }
      ],
      "stateMutability": "view",
      "type": "function",
      "constant": true
    },
    {
      "inputs": [],
      "name": "paused",
      "outputs": [
        {
          "internalType": "bool",
          "name": "",
          "type": "bool"
        }
      ],
      "stateMutability": "view",
      "type": "function",
      "constant": true
    },
    {
      "inputs": [],
      "name": "renounceOwnership",
      "outputs": [],
      "stateMutability": "nonpayable",
      "type": "function"
    },
    {
      "inputs": [],
      "name": "symbol",
      "outputs": [
        {
          "internalType": "string",
          "name": "",
          "type": "string"
        }
      ],
      "stateMutability": "view",
      "type": "function",
      "constant": true
    },
    {
      "inputs": [],
      "name": "totalSupply",
      "outputs": [
        {
          "internalType": "uint256",
          "name": "",
          "type": "uint256"
        }
      ],
      "stateMutability": "view",
      "type": "function",
      "constant": true
    },
    {
      "inputs": [
        {
          "internalType": "address",
          "name": "to",
          "type": "address"
        },
        {
          "internalType": "uint256",
          "name": "amount",
          "type": "uint256"
        }
      ],
      "name": "transfer",
      "outputs": [
        {
          "internalType": "bool",
          "name": "",
          "type": "bool"
        }
      ],
      "stateMutability": "nonpayable",
      "type": "function"
    },
    {
      "inputs": [
        {
          "internalType": "address",
          "name": "from",
          "type": "address"
        },
        {
          "internalType": "address",
          "name": "to",
          "type": "address"
        },
        {
          "internalType": "uint256",
          "name": "amount",
          "type": "uint256"
        }
      ],
      "name": "transferFrom",
      "outputs": [
        {
          "internalType": "bool",
          "name": "",
          "type": "bool"
        }
      ],
      "stateMutability": "nonpayable",
      "type": "function"
    },
    {
      "inputs": [
        {
          "internalType": "address",
          "name": "newOwner",
          "type": "address"
        }
      ],
      "name": "transferOwnership",
      "outputs": [],
      "stateMutability": "nonpayable",
      "type": "function"
    },
    {
      "inputs": [],
      "name": "pause",
      "outputs": [],
      "stateMutability": "nonpayable",
      "type": "function"
    },
    {
      "inputs": [],
      "name": "unpause",
      "outputs": [],
      "stateMutability": "nonpayable",
      "type": "function"
    },
    {
      "inputs": [
        {
          "internalType": "address",
          "name": "to",
          "type": "address"
        },
        {
          "internalType": "uint256",
          "name": "amount",
          "type": "uint256"
        }
      ],
      "name": "mint",
      "outputs": [],
      "stateMutability": "nonpayable",
      "type": "function"
    }
  ],
  "bytecode": "0x60a06040523480156200001157600080fd5b5060405162002e8e38038062002e8e83398181016040528101906200003791906200079e565b80848481600390805190602001906200005292919062000516565b5080600490805190602001906200006b92919062000516565b5050506000600560006101000a81548160ff021916908315150217905550620000a96200009d6200011b60201b60201c565b6200012360201b60201c565b60008111620000ef576040517f08c379a0000000000000000000000000000000000000000000000000000000008152600401620000e690620008af565b60405180910390fd5b80608081815250505080600681905550620001113383620001e960201b60201c565b5050505062000bb7565b600033905090565b6000600560019054906101000a900473ffffffffffffffffffffffffffffffffffffffff16905081600560016101000a81548173ffffffffffffffffffffffffffffffffffffffff021916908373ffffffffffffffffffffffffffffffffffffffff1602179055508173ffffffffffffffffffffffffffffffffffffffff168173ffffffffffffffffffffffffffffffffffffffff167f8be0079c531659141344cd1fd0a4f28419497f9722a3daafe3b4186f6b6457e060405160405180910390a35050565b60065481620001fd6200026860201b60201c565b62000209919062000900565b11156200024d576040517f08c379a00000000000000000000000000000000000000000000000000000000081526004016200024490620009ad565b60405180910390fd5b6200026482826200027260201b62000ac71760201c565b5050565b6000600254905090565b620002826200030360201b60201c565b81620002986200026860201b620004a11760201c565b620002a4919062000900565b1115620002e8576040517f08c379a0000000000000000000000000000000000000000000000000000000008152600401620002df9062000a1f565b60405180910390fd5b620002ff82826200030d60201b62000b311760201c565b5050565b6000608051905090565b600073ffffffffffffffffffffffffffffffffffffffff168273ffffffffffffffffffffffffffffffffffffffff16036200037f576040517f08c379a0000000000000000000000000000000000000000000000000000000008152600401620003769062000a91565b60405180910390fd5b62000393600083836200048560201b60201c565b8060026000828254620003a7919062000900565b92505081905550806000808473ffffffffffffffffffffffffffffffffffffffff1673ffffffffffffffffffffffffffffffffffffffff1681526020019081526020016000206000828254620003fe919062000900565b925050819055508173ffffffffffffffffffffffffffffffffffffffff16600073ffffffffffffffffffffffffffffffffffffffff167fddf252ad1be2c89b69c2b068fc378daa952ba7f163c4a11628f55a4df523b3ef8360405162000465919062000ac4565b60405180910390a36200048160008383620004f560201b60201c565b5050565b62000495620004fa60201b60201c565b15620004d8576040517f08c379a0000000000000000000000000000000000000000000000000000000008152600401620004cf9062000b31565b60405180910390fd5b620004f08383836200051160201b62000c901760201c565b505050565b505050565b6000600560009054906101000a900460ff16905090565b505050565b828054620005249062000b82565b90600052602060002090601f01602090048101928262000548576000855562000594565b82601f106200056357805160ff191683800117855562000594565b8280016001018555821562000594579182015b828111156200059357825182559160200191906001019062000576565b5b509050620005a39190620005a7565b5090565b5b80821115620005c2576000816000905550600101620005a8565b5090565b6000604051905090565b600080fd5b600080fd5b600080fd5b600080fd5b6000601f19601f8301169050919050565b7f4e487b7100000000000000000000000000000000000000000000000000000000600052604160045260246000fd5b6200062f82620005e4565b810181811067ffffffffffffffff82111715620006515762000650620005f5565b5b80604052505050565b600062000666620005c6565b905062000674828262000624565b919050565b600067ffffffffffffffff821115620006975762000696620005f5565b5b620006a282620005e4565b9050602081019050919050565b60005b83811015620006cf578082015181840152602081019050620006b2565b83811115620006df576000848401525b50505050565b6000620006fc620006f68462000679565b6200065a565b9050828152602081018484840111156200071b576200071a620005df565b5b62000728848285620006af565b509392505050565b600082601f830112620007485762000747620005da565b5b81516200075a848260208601620006e5565b91505092915050565b6000819050919050565b620007788162000763565b81146200078457600080fd5b50565b60008151905062000798816200076d565b92915050565b60008060008060808587031215620007bb57620007ba620005d0565b5b600085015167ffffffffffffffff811115620007dc57620007db620005d5565b5b620007ea8782880162000730565b945050602085015167ffffffffffffffff8111156200080e576200080d620005d5565b5b6200081c8782880162000730565b93505060406200082f8782880162000787565b9250506060620008428782880162000787565b91505092959194509250565b600082825260208201905092915050565b7f45524332304361707065643a2063617020697320300000000000000000000000600082015250565b6000620008976015836200084e565b9150620008a4826200085f565b602082019050919050565b60006020820190508181036000830152620008ca8162000888565b9050919050565b7f4e487b7100000000000000000000000000000000000000000000000000000000600052601160045260246000fd5b60006200090d8262000763565b91506200091a8362000763565b9250827fffffffffffffffffffffffffffffffffffffffffffffffffffffffffffffffff03821115620009525762000951620008d1565b5b828201905092915050565b7f4d6178206e756d626572206f6620746f6b656e73206d696e7465640000000000600082015250565b600062000995601b836200084e565b9150620009a2826200095d565b602082019050919050565b60006020820190508181036000830152620009c88162000986565b9050919050565b7f45524332304361707065643a2063617020657863656564656400000000000000600082015250565b600062000a076019836200084e565b915062000a1482620009cf565b602082019050919050565b6000602082019050818103600083015262000a3a81620009f8565b9050919050565b7f45524332303a206d696e7420746f20746865207a65726f206164647265737300600082015250565b600062000a79601f836200084e565b915062000a868262000a41565b602082019050919050565b6000602082019050818103600083015262000aac8162000a6a565b9050919050565b62000abe8162000763565b82525050565b600060208201905062000adb600083018462000ab3565b92915050565b7f5061757361626c653a2070617573656400000000000000000000000000000000600082015250565b600062000b196010836200084e565b915062000b268262000ae1565b602082019050919050565b6000602082019050818103600083015262000b4c8162000b0a565b9050919050565b7f4e487b7100000000000000000000000000000000000000000000000000000000600052602260045260246000fd5b6000600282049050600182168062000b9b57607f821691505b60208210810362000bb15762000bb062000b53565b5b50919050565b6080516122bb62000bd360003960006104e701526122bb6000f3fe608060405234801561001057600080fd5b50600436106101375760003560e01c80635c975abb116100b85780638da5cb5b1161007c5780638da5cb5b1461030457806395d89b4114610322578063a457c2d714610340578063a9059cbb14610370578063dd62ed3e146103a0578063f2fde38b146103d057610137565b80635c975abb1461028657806370a08231146102a4578063715018a6146102d457806379cc6790146102de5780638456cb59146102fa57610137565b8063355274ea116100ff578063355274ea146101f657806339509351146102145780633f4ba83a1461024457806340c10f191461024e57806342966c681461026a57610137565b806306fdde031461013c578063095ea7b31461015a57806318160ddd1461018a57806323b872dd146101a8578063313ce567146101d8575b600080fd5b6101446103ec565b60405161015191906116ad565b60405180910390f35b610174600480360381019061016f9190611768565b61047e565b60405161018191906117c3565b60405180910390f35b6101926104a1565b60405161019f91906117ed565b60405180910390f35b6101c260048036038101906101bd9190611808565b6104ab565b6040516101cf91906117c3565b60405180910390f35b6101e06104da565b6040516101ed9190611877565b60405180910390f35b6101fe6104e3565b60405161020b91906117ed565b60405180910390f35b61022e60048036038101906102299190611768565b61050b565b60405161023b91906117c3565b60405180910390f35b61024c610542565b005b61026860048036038101906102639190611768565b6105c8565b005b610284600480360381019061027f9190611892565b610652565b005b61028e610666565b60405161029b91906117c3565b60405180910390f35b6102be60048036038101906102b991906118bf565b61067d565b6040516102cb91906117ed565b60405180910390f35b6102dc6106c5565b005b6102f860048036038101906102f39190611768565b61074d565b005b61030261076d565b005b61030c6107f3565b60405161031991906118fb565b60405180910390f35b61032a61081d565b60405161033791906116ad565b60405180910390f35b61035a60048036038101906103559190611768565b6108af565b60405161036791906117c3565b60405180910390f35b61038a60048036038101906103859190611768565b610926565b60405161039791906117c3565b60405180910390f35b6103ba60048036038101906103b59190611916565b610949565b6040516103c791906117ed565b60405180910390f35b6103ea60048036038101906103e591906118bf565b6109d0565b005b6060600380546103fb90611985565b80601f016020809104026020016040519081016040528092919081815260200182805461042790611985565b80156104745780601f1061044957610100808354040283529160200191610474565b820191906000526020600020905b81548152906001019060200180831161045757829003601f168201915b5050505050905090565b600080610489610c95565b9050610496818585610c9d565b600191505092915050565b6000600254905090565b6000806104b6610c95565b90506104c3858285610e66565b6104ce858585610ef2565b60019150509392505050565b60006012905090565b60007f0000000000000000000000000000000000000000000000000000000000000000905090565b600080610516610c95565b90506105378185856105288589610949565b61053291906119e5565b610c9d565b600191505092915050565b61054a610c95565b73ffffffffffffffffffffffffffffffffffffffff166105686107f3565b73ffffffffffffffffffffffffffffffffffffffff16146105be576040517f08c379a00000000000000000000000000000000000000000000000000000000081526004016105b590611a87565b60405180910390fd5b6105c6611171565b565b6105d0610c95565b73ffffffffffffffffffffffffffffffffffffffff166105ee6107f3565b73ffffffffffffffffffffffffffffffffffffffff1614610644576040517f08c379a000000000000000000000000000000000000000000000000000000000815260040161063b90611a87565b60405180910390fd5b61064e8282611213565b5050565b61066361065d610c95565b82611278565b50565b6000600560009054906101000a900460ff16905090565b60008060008373ffffffffffffffffffffffffffffffffffffffff1673ffffffffffffffffffffffffffffffffffffffff168152602001908152602001600020549050919050565b6106cd610c95565b73ffffffffffffffffffffffffffffffffffffffff166106eb6107f3565b73ffffffffffffffffffffffffffffffffffffffff1614610741576040517f08c379a000000000000000000000000000000000000000000000000000000000815260040161073890611a87565b60405180910390fd5b61074b600061144e565b565b61075f82610759610c95565b83610e66565b6107698282611278565b5050565b610775610c95565b73ffffffffffffffffffffffffffffffffffffffff166107936107f3565b73ffffffffffffffffffffffffffffffffffffffff16146107e9576040517f08c379a00000000000000000000000000000000000000000000000000000000081526004016107e090611a87565b60405180910390fd5b6107f1611514565b565b6000600560019054906101000a900473ffffffffffffffffffffffffffffffffffffffff16905090565b60606004805461082c90611985565b80601f016020809104026020016040519081016040528092919081815260200182805461085890611985565b80156108a55780601f1061087a576101008083540402835291602001916108a5565b820191906000526020600020905b81548152906001019060200180831161088857829003601f168201915b5050505050905090565b6000806108ba610c95565b905060006108c88286610949565b90508381101561090d576040517f08c379a000000000000000000000000000000000000000000000000000000000815260040161090490611b19565b60405180910390fd5b61091a8286868403610c9d565b60019250505092915050565b600080610931610c95565b905061093e818585610ef2565b600191505092915050565b6000600160008473ffffffffffffffffffffffffffffffffffffffff1673ffffffffffffffffffffffffffffffffffffffff16815260200190815260200160002060008373ffffffffffffffffffffffffffffffffffffffff1673ffffffffffffffffffffffffffffffffffffffff16815260200190815260200160002054905092915050565b6109d8610c95565b73ffffffffffffffffffffffffffffffffffffffff166109f66107f3565b73ffffffffffffffffffffffffffffffffffffffff1614610a4c576040517f08c379a0000000000000000000000000000000000000000000000000000000008152600401610a4390611a87565b60405180910390fd5b600073ffffffffffffffffffffffffffffffffffffffff168173ffffffffffffffffffffffffffffffffffffffff1603610abb576040517f08c379a0000000000000000000000000000000000000000000000000000000008152600401610ab290611bab565b60405180910390fd5b610ac48161144e565b50565b610acf6104e3565b81610ad86104a1565b610ae291906119e5565b1115610b23576040517f08c379a0000000000000000000000000000000000000000000000000000000008152600401610b1a90611c17565b60405180910390fd5b610b2d8282610b31565b5050565b600073ffffffffffffffffffffffffffffffffffffffff168273ffffffffffffffffffffffffffffffffffffffff1603610ba0576040517f08c379a0000000000000000000000000000000000000000000000000000000008152600401610b9790611c83565b60405180910390fd5b610bac600083836115b7565b8060026000828254610bbe91906119e5565b92505081905550806000808473ffffffffffffffffffffffffffffffffffffffff1673ffffffffffffffffffffffffffffffffffffffff1681526020019081526020016000206000828254610c1391906119e5565b925050819055508173ffffffffffffffffffffffffffffffffffffffff16600073ffffffffffffffffffffffffffffffffffffffff167fddf252ad1be2c89b69c2b068fc378daa952ba7f163c4a11628f55a4df523b3ef83604051610c7891906117ed565b60405180910390a3610c8c6000838361160f565b5050565b505050565b600033905090565b600073ffffffffffffffffffffffffffffffffffffffff168373ffffffffffffffffffffffffffffffffffffffff1603610d0c576040517f08c379a0000000000000000000000000000000000000000000000000000000008152600401610d0390611d15565b60405180910390fd5b600073ffffffffffffffffffffffffffffffffffffffff168273ffffffffffffffffffffffffffffffffffffffff1603610d7b576040517f08c379a0000000000000000000000000000000000000000000000000000000008152600401610d7290611da7565b60405180910390fd5b80600160008573ffffffffffffffffffffffffffffffffffffffff1673ffffffffffffffffffffffffffffffffffffffff16815260200190815260200160002060008473ffffffffffffffffffffffffffffffffffffffff1673ffffffffffffffffffffffffffffffffffffffff168152602001908152602001600020819055508173ffffffffffffffffffffffffffffffffffffffff168373ffffffffffffffffffffffffffffffffffffffff167f8c5be1e5ebec7d5bd14f71427d1e84f3dd0314c0f7b2291e5b200ac8c7c3b92583604051610e5991906117ed565b60405180910390a3505050565b6000610e728484610949565b90507fffffffffffffffffffffffffffffffffffffffffffffffffffffffffffffffff8114610eec5781811015610ede576040517f08c379a0000000000000000000000000000000000000000000000000000000008152600401610ed590611e13565b60405180910390fd5b610eeb8484848403610c9d565b5b50505050565b600073ffffffffffffffffffffffffffffffffffffffff168373ffffffffffffffffffffffffffffffffffffffff1603610f61576040517f08c379a0000000000000000000000000000000000000000000000000000000008152600401610f5890611ea5565b60405180910390fd5b600073ffffffffffffffffffffffffffffffffffffffff168273ffffffffffffffffffffffffffffffffffffffff1603610fd0576040517f08c379a0000000000000000000000000000000000000000000000000000000008152600401610fc790611f37565b60405180910390fd5b610fdb8383836115b7565b60008060008573ffffffffffffffffffffffffffffffffffffffff1673ffffffffffffffffffffffffffffffffffffffff16815260200190815260200160002054905081811015611061576040517f08c379a000000000000000000000000000000000000000000000000000000000815260040161105890611fc9565b60405180910390fd5b8181036000808673ffffffffffffffffffffffffffffffffffffffff1673ffffffffffffffffffffffffffffffffffffffff16815260200190815260200160002081905550816000808573ffffffffffffffffffffffffffffffffffffffff1673ffffffffffffffffffffffffffffffffffffffff16815260200190815260200160002060008282546110f491906119e5565b925050819055508273ffffffffffffffffffffffffffffffffffffffff168473ffffffffffffffffffffffffffffffffffffffff167fddf252ad1be2c89b69c2b068fc378daa952ba7f163c4a11628f55a4df523b3ef8460405161115891906117ed565b60405180910390a361116b84848461160f565b50505050565b611179610666565b6111b8576040517f08c379a00000000000000000000000000000000000000000000000000000000081526004016111af90612035565b60405180910390fd5b6000600560006101000a81548160ff0219169083151502179055507f5db9ee0a495bf2e6ff9c91a7834c1ba4fdd244a5e8aa4e537bd38aeae4b073aa6111fc610c95565b60405161120991906118fb565b60405180910390a1565b6006548161121f6104a1565b61122991906119e5565b111561126a576040517f08c379a0000000000000000000000000000000000000000000000000000000008152600401611261906120a1565b60405180910390fd5b6112748282610ac7565b5050565b600073ffffffffffffffffffffffffffffffffffffffff168273ffffffffffffffffffffffffffffffffffffffff16036112e7576040517f08c379a00000000000000000000000000000000000000000000000000000000081526004016112de90612133565b60405180910390fd5b6112f3826000836115b7565b60008060008473ffffffffffffffffffffffffffffffffffffffff1673ffffffffffffffffffffffffffffffffffffffff16815260200190815260200160002054905081811015611379576040517f08c379a0000000000000000000000000000000000000000000000000000000008152600401611370906121c5565b60405180910390fd5b8181036000808573ffffffffffffffffffffffffffffffffffffffff1673ffffffffffffffffffffffffffffffffffffffff1681526020019081526020016000208190555081600260008282546113d091906121e5565b92505081905550600073ffffffffffffffffffffffffffffffffffffffff168373ffffffffffffffffffffffffffffffffffffffff167fddf252ad1be2c89b69c2b068fc378daa952ba7f163c4a11628f55a4df523b3ef8460405161143591906117ed565b60405180910390a36114498360008461160f565b505050565b6000600560019054906101000a900473ffffffffffffffffffffffffffffffffffffffff16905081600560016101000a81548173ffffffffffffffffffffffffffffffffffffffff021916908373ffffffffffffffffffffffffffffffffffffffff1602179055508173ffffffffffffffffffffffffffffffffffffffff168173ffffffffffffffffffffffffffffffffffffffff167f8be0079c531659141344cd1fd0a4f28419497f9722a3daafe3b4186f6b6457e060405160405180910390a35050565b61151c610666565b1561155c576040517f08c379a000000000000000000000000000000000000000000000000000000000815260040161155390612265565b60405180910390fd5b6001600560006101000a81548160ff0219169083151502179055507f62e78cea01bee320cd4e420270b5ea74000d11b0c9f74754ebdbfc544b05a2586115a0610c95565b6040516115ad91906118fb565b60405180910390a1565b6115bf610666565b156115ff576040517f08c379a00000000000000000000000000000000000000000000000000000000081526004016115f690612265565b60405180910390fd5b61160a838383610c90565b505050565b505050565b600081519050919050565b600082825260208201905092915050565b60005b8381101561164e578082015181840152602081019050611633565b8381111561165d576000848401525b50505050565b6000601f19601f8301169050919050565b600061167f82611614565b611689818561161f565b9350611699818560208601611630565b6116a281611663565b840191505092915050565b600060208201905081810360008301526116c78184611674565b905092915050565b600080fd5b600073ffffffffffffffffffffffffffffffffffffffff82169050919050565b60006116ff826116d4565b9050919050565b61170f816116f4565b811461171a57600080fd5b50565b60008135905061172c81611706565b92915050565b6000819050919050565b61174581611732565b811461175057600080fd5b50565b6000813590506117628161173c565b92915050565b6000806040838503121561177f5761177e6116cf565b5b600061178d8582860161171d565b925050602061179e85828601611753565b9150509250929050565b60008115159050919050565b6117bd816117a8565b82525050565b60006020820190506117d860008301846117b4565b92915050565b6117e781611732565b82525050565b600060208201905061180260008301846117de565b92915050565b600080600060608486031215611821576118206116cf565b5b600061182f8682870161171d565b93505060206118408682870161171d565b925050604061185186828701611753565b9150509250925092565b600060ff82169050919050565b6118718161185b565b82525050565b600060208201905061188c6000830184611868565b92915050565b6000602082840312156118a8576118a76116cf565b5b60006118b684828501611753565b91505092915050565b6000602082840312156118d5576118d46116cf565b5b60006118e38482850161171d565b91505092915050565b6118f5816116f4565b82525050565b600060208201905061191060008301846118ec565b92915050565b6000806040838503121561192d5761192c6116cf565b5b600061193b8582860161171d565b925050602061194c8582860161171d565b9150509250929050565b7f4e487b7100000000000000000000000000000000000000000000000000000000600052602260045260246000fd5b6000600282049050600182168061199d57607f821691505b6020821081036119b0576119af611956565b5b50919050565b7f4e487b7100000000000000000000000000000000000000000000000000000000600052601160045260246000fd5b60006119f082611732565b91506119fb83611732565b9250827fffffffffffffffffffffffffffffffffffffffffffffffffffffffffffffffff03821115611a3057611a2f6119b6565b5b828201905092915050565b7f4f776e61626c653a2063616c6c6572206973206e6f7420746865206f776e6572600082015250565b6000611a7160208361161f565b9150611a7c82611a3b565b602082019050919050565b60006020820190508181036000830152611aa081611a64565b9050919050565b7f45524332303a2064656372656173656420616c6c6f77616e63652062656c6f7760008201527f207a65726f000000000000000000000000000000000000000000000000000000602082015250565b6000611b0360258361161f565b9150611b0e82611aa7565b604082019050919050565b60006020820190508181036000830152611b3281611af6565b9050919050565b7f4f776e61626c653a206e6577206f776e657220697320746865207a65726f206160008201527f6464726573730000000000000000000000000000000000000000000000000000602082015250565b6000611b9560268361161f565b9150611ba082611b39565b604082019050919050565b60006020820190508181036000830152611bc481611b88565b9050919050565b7f45524332304361707065643a2063617020657863656564656400000000000000600082015250565b6000611c0160198361161f565b9150611c0c82611bcb565b602082019050919050565b60006020820190508181036000830152611c3081611bf4565b9050919050565b7f45524332303a206d696e7420746f20746865207a65726f206164647265737300600082015250565b6000611c6d601f8361161f565b9150611c7882611c37565b602082019050919050565b60006020820190508181036000830152611c9c81611c60565b9050919050565b7f45524332303a20617070726f76652066726f6d20746865207a65726f2061646460008201527f7265737300000000000000000000000000000000000000000000000000000000602082015250565b6000611cff60248361161f565b9150611d0a82611ca3565b604082019050919050565b60006020820190508181036000830152611d2e81611cf2565b9050919050565b7f45524332303a20617070726f766520746f20746865207a65726f20616464726560008201527f7373000000000000000000000000000000000000000000000000000000000000602082015250565b6000611d9160228361161f565b9150611d9c82611d35565b604082019050919050565b60006020820190508181036000830152611dc081611d84565b9050919050565b7f45524332303a20696e73756666696369656e7420616c6c6f77616e6365000000600082015250565b6000611dfd601d8361161f565b9150611e0882611dc7565b602082019050919050565b60006020820190508181036000830152611e2c81611df0565b9050919050565b7f45524332303a207472616e736665722066726f6d20746865207a65726f20616460008201527f6472657373000000000000000000000000000000000000000000000000000000602082015250565b6000611e8f60258361161f565b9150611e9a82611e33565b604082019050919050565b60006020820190508181036000830152611ebe81611e82565b9050919050565b7f45524332303a207472616e7366657220746f20746865207a65726f206164647260008201527f6573730000000000000000000000000000000000000000000000000000000000602082015250565b6000611f2160238361161f565b9150611f2c82611ec5565b604082019050919050565b60006020820190508181036000830152611f5081611f14565b9050919050565b7f45524332303a207472616e7366657220616d6f756e742065786365656473206260008201527f616c616e63650000000000000000000000000000000000000000000000000000602082015250565b6000611fb360268361161f565b9150611fbe82611f57565b604082019050919050565b60006020820190508181036000830152611fe281611fa6565b9050919050565b7f5061757361626c653a206e6f7420706175736564000000000000000000000000600082015250565b600061201f60148361161f565b915061202a82611fe9565b602082019050919050565b6000602082019050818103600083015261204e81612012565b9050919050565b7f4d6178206e756d626572206f6620746f6b656e73206d696e7465640000000000600082015250565b600061208b601b8361161f565b915061209682612055565b602082019050919050565b600060208201905081810360008301526120ba8161207e565b9050919050565b7f45524332303a206275726e2066726f6d20746865207a65726f2061646472657360008201527f7300000000000000000000000000000000000000000000000000000000000000602082015250565b600061211d60218361161f565b9150612128826120c1565b604082019050919050565b6000602082019050818103600083015261214c81612110565b9050919050565b7f45524332303a206275726e20616d6f756e7420657863656564732062616c616e60008201527f6365000000000000000000000000000000000000000000000000000000000000602082015250565b60006121af60228361161f565b91506121ba82612153565b604082019050919050565b600060208201905081810360008301526121de816121a2565b9050919050565b60006121f082611732565b91506121fb83611732565b92508282101561220e5761220d6119b6565b5b828203905092915050565b7f5061757361626c653a2070617573656400000000000000000000000000000000600082015250565b600061224f60108361161f565b915061225a82612219565b602082019050919050565b6000602082019050818103600083015261227e81612242565b905091905056fea2646970667358221220374d1b7ef340cc8a4b0b15f2f9422f06eb139de21b75337c15a398f17d6ad89d64736f6c634300080d0033",
  "immutableReferences": {
    "912": [
      {
        "length": 32,
        "start": 1255
      }
    ]
  },
  "source": "// SPDX-License-Identifier: MIT\n// pragma solidity ^0.8.4;\npragma solidity >=0.4.22 <0.9.0;\n\nimport \"@openzeppelin/contracts/token/ERC20/ERC20.sol\";\nimport \"@openzeppelin/contracts/token/ERC20/extensions/ERC20Capped.sol\";\nimport \"@openzeppelin/contracts/token/ERC20/extensions/ERC20Burnable.sol\";\nimport \"@openzeppelin/contracts/security/Pausable.sol\";\nimport \"@openzeppelin/contracts/access/Ownable.sol\";\n\n/// @custom:security-contact security@100pay.co\ncontract PayToken is ERC20, ERC20Burnable, Pausable, Ownable, ERC20Capped {\n    uint256 private cap_;\n\n    constructor(\n        string memory _name, \n        string memory _symbol,\n        uint256 initialSupply,\n        uint256 _cap\n    )\n    ERC20(_name, _symbol) ERC20Capped(_cap) \n    {\n        cap_ = _cap;\n        _mint(msg.sender, initialSupply);\n    }\n\n    function pause() public onlyOwner {\n        _pause();\n    }\n\n    function unpause() public onlyOwner {\n        _unpause();\n    }\n\n    function mint(address to, uint256 amount) public onlyOwner {\n        _mint(to, amount);\n    }\n\n    function _beforeTokenTransfer(address from, address to, uint256 amount)\n        internal\n        whenNotPaused\n        override\n    {\n        super._beforeTokenTransfer(from, to, amount);\n    }\n\n    function _mint(address to, uint256 amount)\n        internal\n        override(ERC20, ERC20Capped)\n    {\n        require(totalSupply() + amount <= cap_, \"Max number of tokens minted\");\n        super._mint(to, amount);\n    }\n}\n",
  "sourcePath": "/Users/macbookpro/Projects/100pay/100pay-token/contracts/PayToken.sol",
  "compiler": {
    "name": "solc",
    "version": "0.8.13+commit.abaa5c0e.Emscripten.clang"
  },
  "schemaVersion": "3.4.7",
  "updatedAt": "2024-04-13T18:11:43.831Z",
  "networkType": "ethereum",
  "devdoc": {
    "custom:security-contact": "security@100pay.co",
    "kind": "dev",
    "methods": {
      "allowance(address,address)": {
        "details": "See {IERC20-allowance}."
      },
      "approve(address,uint256)": {
        "details": "See {IERC20-approve}. NOTE: If `amount` is the maximum `uint256`, the allowance is not updated on `transferFrom`. This is semantically equivalent to an infinite approval. Requirements: - `spender` cannot be the zero address."
      },
      "balanceOf(address)": {
        "details": "See {IERC20-balanceOf}."
      },
      "burn(uint256)": {
        "details": "Destroys `amount` tokens from the caller. See {ERC20-_burn}."
      },
      "burnFrom(address,uint256)": {
        "details": "Destroys `amount` tokens from `account`, deducting from the caller's allowance. See {ERC20-_burn} and {ERC20-allowance}. Requirements: - the caller must have allowance for ``accounts``'s tokens of at least `amount`."
      },
      "cap()": {
        "details": "Returns the cap on the token's total supply."
      },
      "decimals()": {
        "details": "Returns the number of decimals used to get its user representation. For example, if `decimals` equals `2`, a balance of `505` tokens should be displayed to a user as `5.05` (`505 / 10 ** 2`). Tokens usually opt for a value of 18, imitating the relationship between Ether and Wei. This is the value {ERC20} uses, unless this function is overridden; NOTE: This information is only used for _display_ purposes: it in no way affects any of the arithmetic of the contract, including {IERC20-balanceOf} and {IERC20-transfer}."
      },
      "decreaseAllowance(address,uint256)": {
        "details": "Atomically decreases the allowance granted to `spender` by the caller. This is an alternative to {approve} that can be used as a mitigation for problems described in {IERC20-approve}. Emits an {Approval} event indicating the updated allowance. Requirements: - `spender` cannot be the zero address. - `spender` must have allowance for the caller of at least `subtractedValue`."
      },
      "increaseAllowance(address,uint256)": {
        "details": "Atomically increases the allowance granted to `spender` by the caller. This is an alternative to {approve} that can be used as a mitigation for problems described in {IERC20-approve}. Emits an {Approval} event indicating the updated allowance. Requirements: - `spender` cannot be the zero address."
      },
      "name()": {
        "details": "Returns the name of the token."
      },
      "owner()": {
        "details": "Returns the address of the current owner."
      },
      "paused()": {
        "details": "Returns true if the contract is paused, and false otherwise."
      },
      "renounceOwnership()": {
        "details": "Leaves the contract without owner. It will not be possible to call `onlyOwner` functions anymore. Can only be called by the current owner. NOTE: Renouncing ownership will leave the contract without an owner, thereby removing any functionality that is only available to the owner."
      },
      "symbol()": {
        "details": "Returns the symbol of the token, usually a shorter version of the name."
      },
      "totalSupply()": {
        "details": "See {IERC20-totalSupply}."
      },
      "transfer(address,uint256)": {
        "details": "See {IERC20-transfer}. Requirements: - `to` cannot be the zero address. - the caller must have a balance of at least `amount`."
      },
      "transferFrom(address,address,uint256)": {
        "details": "See {IERC20-transferFrom}. Emits an {Approval} event indicating the updated allowance. This is not required by the EIP. See the note at the beginning of {ERC20}. NOTE: Does not update the allowance if the current allowance is the maximum `uint256`. Requirements: - `from` and `to` cannot be the zero address. - `from` must have a balance of at least `amount`. - the caller must have allowance for ``from``'s tokens of at least `amount`."
      },
      "transferOwnership(address)": {
        "details": "Transfers ownership of the contract to a new account (`newOwner`). Can only be called by the current owner."
      }
    },
    "version": 1
  },
  "userdoc": {
    "kind": "user",
    "methods": {},
    "version": 1
  }
}